{
  "_format": "hh-sol-artifact-1",
  "contractName": "RealEstateNFT",
  "sourceName": "contracts/RealEstateNFT.sol",
  "abi": [
    {
      "inputs": [
        {
          "internalType": "address",
          "name": "initialOwner",
          "type": "address"
        },
        {
          "internalType": "string",
          "name": "name",
          "type": "string"
        },
        {
          "internalType": "string",
          "name": "symbol",
          "type": "string"
        }
      ],
      "stateMutability": "nonpayable",
      "type": "constructor"
    },
    {
      "inputs": [],
      "name": "ERC721EnumerableForbiddenBatchMint",
      "type": "error"
    },
    {
      "inputs": [
        {
          "internalType": "address",
          "name": "sender",
          "type": "address"
        },
        {
          "internalType": "uint256",
          "name": "tokenId",
          "type": "uint256"
        },
        {
          "internalType": "address",
          "name": "owner",
          "type": "address"
        }
      ],
      "name": "ERC721IncorrectOwner",
      "type": "error"
    },
    {
      "inputs": [
        {
          "internalType": "address",
          "name": "operator",
          "type": "address"
        },
        {
          "internalType": "uint256",
          "name": "tokenId",
          "type": "uint256"
        }
      ],
      "name": "ERC721InsufficientApproval",
      "type": "error"
    },
    {
      "inputs": [
        {
          "internalType": "address",
          "name": "approver",
          "type": "address"
        }
      ],
      "name": "ERC721InvalidApprover",
      "type": "error"
    },
    {
      "inputs": [
        {
          "internalType": "address",
          "name": "operator",
          "type": "address"
        }
      ],
      "name": "ERC721InvalidOperator",
      "type": "error"
    },
    {
      "inputs": [
        {
          "internalType": "address",
          "name": "owner",
          "type": "address"
        }
      ],
      "name": "ERC721InvalidOwner",
      "type": "error"
    },
    {
      "inputs": [
        {
          "internalType": "address",
          "name": "receiver",
          "type": "address"
        }
      ],
      "name": "ERC721InvalidReceiver",
      "type": "error"
    },
    {
      "inputs": [
        {
          "internalType": "address",
          "name": "sender",
          "type": "address"
        }
      ],
      "name": "ERC721InvalidSender",
      "type": "error"
    },
    {
      "inputs": [
        {
          "internalType": "uint256",
          "name": "tokenId",
          "type": "uint256"
        }
      ],
      "name": "ERC721NonexistentToken",
      "type": "error"
    },
    {
      "inputs": [
        {
          "internalType": "address",
          "name": "owner",
          "type": "address"
        },
        {
          "internalType": "uint256",
          "name": "index",
          "type": "uint256"
        }
      ],
      "name": "ERC721OutOfBoundsIndex",
      "type": "error"
    },
    {
      "inputs": [
        {
          "internalType": "address",
          "name": "owner",
          "type": "address"
        }
      ],
      "name": "OwnableInvalidOwner",
      "type": "error"
    },
    {
      "inputs": [
        {
          "internalType": "address",
          "name": "account",
          "type": "address"
        }
      ],
      "name": "OwnableUnauthorizedAccount",
      "type": "error"
    },
    {
      "anonymous": false,
      "inputs": [
        {
          "indexed": true,
          "internalType": "address",
          "name": "owner",
          "type": "address"
        },
        {
          "indexed": true,
          "internalType": "address",
          "name": "approved",
          "type": "address"
        },
        {
          "indexed": true,
          "internalType": "uint256",
          "name": "tokenId",
          "type": "uint256"
        }
      ],
      "name": "Approval",
      "type": "event"
    },
    {
      "anonymous": false,
      "inputs": [
        {
          "indexed": true,
          "internalType": "address",
          "name": "owner",
          "type": "address"
        },
        {
          "indexed": true,
          "internalType": "address",
          "name": "operator",
          "type": "address"
        },
        {
          "indexed": false,
          "internalType": "bool",
          "name": "approved",
          "type": "bool"
        }
      ],
      "name": "ApprovalForAll",
      "type": "event"
    },
    {
      "anonymous": false,
      "inputs": [
        {
          "indexed": false,
          "internalType": "uint256",
          "name": "_fromTokenId",
          "type": "uint256"
        },
        {
          "indexed": false,
          "internalType": "uint256",
          "name": "_toTokenId",
          "type": "uint256"
        }
      ],
      "name": "BatchMetadataUpdate",
      "type": "event"
    },
    {
      "anonymous": false,
      "inputs": [
        {
          "indexed": false,
          "internalType": "uint256",
          "name": "_tokenId",
          "type": "uint256"
        }
      ],
      "name": "MetadataUpdate",
      "type": "event"
    },
    {
      "anonymous": false,
      "inputs": [
        {
          "indexed": true,
          "internalType": "address",
          "name": "previousOwner",
          "type": "address"
        },
        {
          "indexed": true,
          "internalType": "address",
          "name": "newOwner",
          "type": "address"
        }
      ],
      "name": "OwnershipTransferred",
      "type": "event"
    },
    {
      "anonymous": false,
      "inputs": [
        {
          "indexed": true,
          "internalType": "address",
          "name": "from",
          "type": "address"
        },
        {
          "indexed": true,
          "internalType": "address",
          "name": "to",
          "type": "address"
        },
        {
          "indexed": true,
          "internalType": "uint256",
          "name": "tokenId",
          "type": "uint256"
        }
      ],
      "name": "Transfer",
      "type": "event"
    },
    {
      "inputs": [
        {
          "internalType": "address",
          "name": "to",
          "type": "address"
        },
        {
          "internalType": "uint256",
          "name": "tokenId",
          "type": "uint256"
        }
      ],
      "name": "approve",
      "outputs": [],
      "stateMutability": "nonpayable",
      "type": "function"
    },
    {
      "inputs": [
        {
          "internalType": "address",
          "name": "owner",
          "type": "address"
        }
      ],
      "name": "balanceOf",
      "outputs": [
        {
          "internalType": "uint256",
          "name": "",
          "type": "uint256"
        }
      ],
      "stateMutability": "view",
      "type": "function"
    },
    {
      "inputs": [
        {
          "internalType": "uint256",
          "name": "tokenId",
          "type": "uint256"
        }
      ],
      "name": "burn",
      "outputs": [],
      "stateMutability": "nonpayable",
      "type": "function"
    },
    {
      "inputs": [
        {
          "internalType": "uint256",
          "name": "tokenId",
          "type": "uint256"
        },
        {
          "internalType": "uint256",
          "name": "price",
          "type": "uint256"
        }
      ],
      "name": "buyProperty",
      "outputs": [],
      "stateMutability": "payable",
      "type": "function"
    },
    {
      "inputs": [
        {
          "internalType": "uint256",
          "name": "tokenId",
          "type": "uint256"
        }
      ],
      "name": "getApproved",
      "outputs": [
        {
          "internalType": "address",
          "name": "",
          "type": "address"
        }
      ],
      "stateMutability": "view",
      "type": "function"
    },
    {
      "inputs": [
        {
          "internalType": "address",
          "name": "owner",
          "type": "address"
        },
        {
          "internalType": "address",
          "name": "operator",
          "type": "address"
        }
      ],
      "name": "isApprovedForAll",
      "outputs": [
        {
          "internalType": "bool",
          "name": "",
          "type": "bool"
        }
      ],
      "stateMutability": "view",
      "type": "function"
    },
    {
      "inputs": [
        {
          "internalType": "string",
          "name": "uri",
          "type": "string"
        }
      ],
      "name": "listProperty",
      "outputs": [],
      "stateMutability": "nonpayable",
      "type": "function"
    },
    {
      "inputs": [],
      "name": "name",
      "outputs": [
        {
          "internalType": "string",
          "name": "",
          "type": "string"
        }
      ],
      "stateMutability": "view",
      "type": "function"
    },
    {
      "inputs": [],
      "name": "owner",
      "outputs": [
        {
          "internalType": "address",
          "name": "",
          "type": "address"
        }
      ],
      "stateMutability": "view",
      "type": "function"
    },
    {
      "inputs": [
        {
          "internalType": "uint256",
          "name": "tokenId",
          "type": "uint256"
        }
      ],
      "name": "ownerOf",
      "outputs": [
        {
          "internalType": "address",
          "name": "",
          "type": "address"
        }
      ],
      "stateMutability": "view",
      "type": "function"
    },
    {
      "inputs": [],
      "name": "renounceOwnership",
      "outputs": [],
      "stateMutability": "nonpayable",
      "type": "function"
    },
    {
      "inputs": [
        {
          "internalType": "address",
          "name": "from",
          "type": "address"
        },
        {
          "internalType": "address",
          "name": "to",
          "type": "address"
        },
        {
          "internalType": "uint256",
          "name": "tokenId",
          "type": "uint256"
        }
      ],
      "name": "safeTransferFrom",
      "outputs": [],
      "stateMutability": "nonpayable",
      "type": "function"
    },
    {
      "inputs": [
        {
          "internalType": "address",
          "name": "from",
          "type": "address"
        },
        {
          "internalType": "address",
          "name": "to",
          "type": "address"
        },
        {
          "internalType": "uint256",
          "name": "tokenId",
          "type": "uint256"
        },
        {
          "internalType": "bytes",
          "name": "data",
          "type": "bytes"
        }
      ],
      "name": "safeTransferFrom",
      "outputs": [],
      "stateMutability": "nonpayable",
      "type": "function"
    },
    {
      "inputs": [
        {
          "internalType": "address",
          "name": "operator",
          "type": "address"
        },
        {
          "internalType": "bool",
          "name": "approved",
          "type": "bool"
        }
      ],
      "name": "setApprovalForAll",
      "outputs": [],
      "stateMutability": "nonpayable",
      "type": "function"
    },
    {
      "inputs": [
        {
          "internalType": "bytes4",
          "name": "interfaceId",
          "type": "bytes4"
        }
      ],
      "name": "supportsInterface",
      "outputs": [
        {
          "internalType": "bool",
          "name": "",
          "type": "bool"
        }
      ],
      "stateMutability": "view",
      "type": "function"
    },
    {
      "inputs": [],
      "name": "symbol",
      "outputs": [
        {
          "internalType": "string",
          "name": "",
          "type": "string"
        }
      ],
      "stateMutability": "view",
      "type": "function"
    },
    {
      "inputs": [
        {
          "internalType": "uint256",
          "name": "index",
          "type": "uint256"
        }
      ],
      "name": "tokenByIndex",
      "outputs": [
        {
          "internalType": "uint256",
          "name": "",
          "type": "uint256"
        }
      ],
      "stateMutability": "view",
      "type": "function"
    },
    {
      "inputs": [
        {
          "internalType": "address",
          "name": "owner",
          "type": "address"
        },
        {
          "internalType": "uint256",
          "name": "index",
          "type": "uint256"
        }
      ],
      "name": "tokenOfOwnerByIndex",
      "outputs": [
        {
          "internalType": "uint256",
          "name": "",
          "type": "uint256"
        }
      ],
      "stateMutability": "view",
      "type": "function"
    },
    {
      "inputs": [
        {
          "internalType": "uint256",
          "name": "tokenId",
          "type": "uint256"
        }
      ],
      "name": "tokenURI",
      "outputs": [
        {
          "internalType": "string",
          "name": "",
          "type": "string"
        }
      ],
      "stateMutability": "view",
      "type": "function"
    },
    {
      "inputs": [],
      "name": "totalSupply",
      "outputs": [
        {
          "internalType": "uint256",
          "name": "",
          "type": "uint256"
        }
      ],
      "stateMutability": "view",
      "type": "function"
    },
    {
      "inputs": [
        {
          "internalType": "address",
          "name": "from",
          "type": "address"
        },
        {
          "internalType": "address",
          "name": "to",
          "type": "address"
        },
        {
          "internalType": "uint256",
          "name": "tokenId",
          "type": "uint256"
        }
      ],
      "name": "transferFrom",
      "outputs": [],
      "stateMutability": "nonpayable",
      "type": "function"
    },
    {
      "inputs": [
        {
          "internalType": "address",
          "name": "newOwner",
          "type": "address"
        }
      ],
      "name": "transferOwnership",
      "outputs": [],
      "stateMutability": "nonpayable",
      "type": "function"
    },
    {
      "inputs": [
        {
          "internalType": "uint256",
          "name": "tokenId",
          "type": "uint256"
        }
      ],
      "name": "unlistProperty",
      "outputs": [],
      "stateMutability": "nonpayable",
      "type": "function"
    }
  ],
  "bytecode": "0x60806040523480156200001157600080fd5b5060405162003c0e38038062003c0e8339818101604052810190620000379190620003ae565b82828281600090816200004b919062000693565b5080600190816200005d919062000693565b505050600073ffffffffffffffffffffffffffffffffffffffff168173ffffffffffffffffffffffffffffffffffffffff1603620000d55760006040517f1e4fbdf7000000000000000000000000000000000000000000000000000000008152600401620000cc91906200078b565b60405180910390fd5b620000e681620000f060201b60201c565b50505050620007a8565b6000600b60009054906101000a900473ffffffffffffffffffffffffffffffffffffffff16905081600b60006101000a81548173ffffffffffffffffffffffffffffffffffffffff021916908373ffffffffffffffffffffffffffffffffffffffff1602179055508173ffffffffffffffffffffffffffffffffffffffff168173ffffffffffffffffffffffffffffffffffffffff167f8be0079c531659141344cd1fd0a4f28419497f9722a3daafe3b4186f6b6457e060405160405180910390a35050565b6000604051905090565b600080fd5b600080fd5b600073ffffffffffffffffffffffffffffffffffffffff82169050919050565b6000620001f782620001ca565b9050919050565b6200020981620001ea565b81146200021557600080fd5b50565b6000815190506200022981620001fe565b92915050565b600080fd5b600080fd5b6000601f19601f8301169050919050565b7f4e487b7100000000000000000000000000000000000000000000000000000000600052604160045260246000fd5b620002848262000239565b810181811067ffffffffffffffff82111715620002a657620002a56200024a565b5b80604052505050565b6000620002bb620001b6565b9050620002c9828262000279565b919050565b600067ffffffffffffffff821115620002ec57620002eb6200024a565b5b620002f78262000239565b9050602081019050919050565b60005b838110156200032457808201518184015260208101905062000307565b60008484015250505050565b6000620003476200034184620002ce565b620002af565b90508281526020810184848401111562000366576200036562000234565b5b6200037384828562000304565b509392505050565b600082601f8301126200039357620003926200022f565b5b8151620003a584826020860162000330565b91505092915050565b600080600060608486031215620003ca57620003c9620001c0565b5b6000620003da8682870162000218565b935050602084015167ffffffffffffffff811115620003fe57620003fd620001c5565b5b6200040c868287016200037b565b925050604084015167ffffffffffffffff81111562000430576200042f620001c5565b5b6200043e868287016200037b565b9150509250925092565b600081519050919050565b7f4e487b7100000000000000000000000000000000000000000000000000000000600052602260045260246000fd5b600060028204905060018216806200049b57607f821691505b602082108103620004b157620004b062000453565b5b50919050565b60008190508160005260206000209050919050565b60006020601f8301049050919050565b600082821b905092915050565b6000600883026200051b7fffffffffffffffffffffffffffffffffffffffffffffffffffffffffffffffff82620004dc565b620005278683620004dc565b95508019841693508086168417925050509392505050565b6000819050919050565b6000819050919050565b6000620005746200056e62000568846200053f565b62000549565b6200053f565b9050919050565b6000819050919050565b620005908362000553565b620005a86200059f826200057b565b848454620004e9565b825550505050565b600090565b620005bf620005b0565b620005cc81848462000585565b505050565b5b81811015620005f457620005e8600082620005b5565b600181019050620005d2565b5050565b601f82111562000643576200060d81620004b7565b6200061884620004cc565b8101602085101562000628578190505b620006406200063785620004cc565b830182620005d1565b50505b505050565b600082821c905092915050565b6000620006686000198460080262000648565b1980831691505092915050565b600062000683838362000655565b9150826002028217905092915050565b6200069e8262000448565b67ffffffffffffffff811115620006ba57620006b96200024a565b5b620006c6825462000482565b620006d3828285620005f8565b600060209050601f8311600181146200070b5760008415620006f6578287015190505b62000702858262000675565b86555062000772565b601f1984166200071b86620004b7565b60005b8281101562000745578489015182556001820191506020850194506020810190506200071e565b8683101562000765578489015162000761601f89168262000655565b8355505b6001600288020188555050505b505050505050565b6200078581620001ea565b82525050565b6000602082019050620007a260008301846200077a565b92915050565b61345680620007b86000396000f3fe6080604052600436106101405760003560e01c80636352211e116100b6578063a22cb4651161006f578063a22cb4651461046c578063a772c92714610495578063b88d4fde146104b1578063c87b56dd146104da578063e985e9c514610517578063f2fde38b1461055457610140565b80636352211e1461035c57806370a0823114610399578063715018a6146103d6578063841ad8b9146103ed5780638da5cb5b1461041657806395d89b411461044157610140565b806318160ddd1161010857806318160ddd1461023c57806323b872dd146102675780632f745c591461029057806342842e0e146102cd57806342966c68146102f65780634f6ccce71461031f57610140565b806301ffc9a7146101455780630670d0841461018257806306fdde03146101ab578063081812fc146101d6578063095ea7b314610213575b600080fd5b34801561015157600080fd5b5061016c60048036038101906101679190612685565b61057d565b60405161017991906126cd565b60405180910390f35b34801561018e57600080fd5b506101a960048036038101906101a4919061282e565b61058f565b005b3480156101b757600080fd5b506101c06105c2565b6040516101cd91906128f6565b60405180910390f35b3480156101e257600080fd5b506101fd60048036038101906101f8919061294e565b610654565b60405161020a91906129bc565b60405180910390f35b34801561021f57600080fd5b5061023a60048036038101906102359190612a03565b610670565b005b34801561024857600080fd5b50610251610686565b60405161025e9190612a52565b60405180910390f35b34801561027357600080fd5b5061028e60048036038101906102899190612a6d565b610693565b005b34801561029c57600080fd5b506102b760048036038101906102b29190612a03565b610795565b6040516102c49190612a52565b60405180910390f35b3480156102d957600080fd5b506102f460048036038101906102ef9190612a6d565b61083e565b005b34801561030257600080fd5b5061031d6004803603810190610318919061294e565b61085e565b005b34801561032b57600080fd5b506103466004803603810190610341919061294e565b610875565b6040516103539190612a52565b60405180910390f35b34801561036857600080fd5b50610383600480360381019061037e919061294e565b6108eb565b60405161039091906129bc565b60405180910390f35b3480156103a557600080fd5b506103c060048036038101906103bb9190612ac0565b6108fd565b6040516103cd9190612a52565b60405180910390f35b3480156103e257600080fd5b506103eb6109b7565b005b3480156103f957600080fd5b50610414600480360381019061040f919061294e565b6109cb565b005b34801561042257600080fd5b5061042b610a4d565b60405161043891906129bc565b60405180910390f35b34801561044d57600080fd5b50610456610a77565b60405161046391906128f6565b60405180910390f35b34801561047857600080fd5b50610493600480360381019061048e9190612b19565b610b09565b005b6104af60048036038101906104aa9190612b59565b610b1f565b005b3480156104bd57600080fd5b506104d860048036038101906104d39190612c3a565b610c0a565b005b3480156104e657600080fd5b5061050160048036038101906104fc919061294e565b610c27565b60405161050e91906128f6565b60405180910390f35b34801561052357600080fd5b5061053e60048036038101906105399190612cbd565b610c39565b60405161054b91906126cd565b60405180910390f35b34801561056057600080fd5b5061057b60048036038101906105769190612ac0565b610ccd565b005b600061058882610d53565b9050919050565b6000600c60008154809291906105a490612d2c565b9190505590506105b43382610db4565b6105be8183610dd2565b5050565b6060600080546105d190612da3565b80601f01602080910402602001604051908101604052809291908181526020018280546105fd90612da3565b801561064a5780601f1061061f5761010080835404028352916020019161064a565b820191906000526020600020905b81548152906001019060200180831161062d57829003601f168201915b5050505050905090565b600061065f82610e2e565b5061066982610eb6565b9050919050565b610682828261067d610ef3565b610efb565b5050565b6000600880549050905090565b600073ffffffffffffffffffffffffffffffffffffffff168273ffffffffffffffffffffffffffffffffffffffff16036107055760006040517f64a0ae920000000000000000000000000000000000000000000000000000000081526004016106fc91906129bc565b60405180910390fd5b60006107198383610714610ef3565b610f0d565b90508373ffffffffffffffffffffffffffffffffffffffff168173ffffffffffffffffffffffffffffffffffffffff161461078f578382826040517f64283d7b00000000000000000000000000000000000000000000000000000000815260040161078693929190612dd4565b60405180910390fd5b50505050565b60006107a0836108fd565b82106107e55782826040517fa57d13dc0000000000000000000000000000000000000000000000000000000081526004016107dc929190612e0b565b60405180910390fd5b600660008473ffffffffffffffffffffffffffffffffffffffff1673ffffffffffffffffffffffffffffffffffffffff168152602001908152602001600020600083815260200190815260200160002054905092915050565b61085983838360405180602001604052806000815250610c0a565b505050565b61087160008261086c610ef3565b610f0d565b5050565b600061087f610686565b82106108c5576000826040517fa57d13dc0000000000000000000000000000000000000000000000000000000081526004016108bc929190612e0b565b60405180910390fd5b600882815481106108d9576108d8612e34565b5b90600052602060002001549050919050565b60006108f682610e2e565b9050919050565b60008073ffffffffffffffffffffffffffffffffffffffff168273ffffffffffffffffffffffffffffffffffffffff16036109705760006040517f89c62b6400000000000000000000000000000000000000000000000000000000815260040161096791906129bc565b60405180910390fd5b600360008373ffffffffffffffffffffffffffffffffffffffff1673ffffffffffffffffffffffffffffffffffffffff168152602001908152602001600020549050919050565b6109bf610f23565b6109c96000610faa565b565b3373ffffffffffffffffffffffffffffffffffffffff166109eb826108eb565b73ffffffffffffffffffffffffffffffffffffffff1614610a41576040517f08c379a0000000000000000000000000000000000000000000000000000000008152600401610a3890612ed5565b60405180910390fd5b610a4a81611070565b50565b6000600b60009054906101000a900473ffffffffffffffffffffffffffffffffffffffff16905090565b606060018054610a8690612da3565b80601f0160208091040260200160405190810160405280929190818152602001828054610ab290612da3565b8015610aff5780601f10610ad457610100808354040283529160200191610aff565b820191906000526020600020905b815481529060010190602001808311610ae257829003601f168201915b5050505050905090565b610b1b610b14610ef3565b83836110f6565b5050565b80341015610b62576040517f08c379a0000000000000000000000000000000000000000000000000000000008152600401610b5990612f41565b60405180910390fd5b6000821015610ba6576040517f08c379a0000000000000000000000000000000000000000000000000000000008152600401610b9d90612fad565b60405180910390fd5b6000610bb1836108eb565b90508073ffffffffffffffffffffffffffffffffffffffff166108fc349081150290604051600060405180830381858888f19350505050158015610bf9573d6000803e3d6000fd5b50610c05813385611265565b505050565b610c15848484610693565b610c2184848484611285565b50505050565b6060610c328261143c565b9050919050565b6000600560008473ffffffffffffffffffffffffffffffffffffffff1673ffffffffffffffffffffffffffffffffffffffff16815260200190815260200160002060008373ffffffffffffffffffffffffffffffffffffffff1673ffffffffffffffffffffffffffffffffffffffff16815260200190815260200160002060009054906101000a900460ff16905092915050565b610cd5610f23565b600073ffffffffffffffffffffffffffffffffffffffff168173ffffffffffffffffffffffffffffffffffffffff1603610d475760006040517f1e4fbdf7000000000000000000000000000000000000000000000000000000008152600401610d3e91906129bc565b60405180910390fd5b610d5081610faa565b50565b6000634906490660e01b7bffffffffffffffffffffffffffffffffffffffffffffffffffffffff1916827bffffffffffffffffffffffffffffffffffffffffffffffffffffffff19161480610dad5750610dac8261154f565b5b9050919050565b610dce8282604051806020016040528060008152506115c9565b5050565b80600a60008481526020019081526020016000209081610df29190613179565b507ff8e1a15aba9398e019f0b49df1a4fde98ee17ae345cb5f6b5e2c27f5033e8ce782604051610e229190612a52565b60405180910390a15050565b600080610e3a836115e5565b9050600073ffffffffffffffffffffffffffffffffffffffff168173ffffffffffffffffffffffffffffffffffffffff1603610ead57826040517f7e273289000000000000000000000000000000000000000000000000000000008152600401610ea49190612a52565b60405180910390fd5b80915050919050565b60006004600083815260200190815260200160002060009054906101000a900473ffffffffffffffffffffffffffffffffffffffff169050919050565b600033905090565b610f088383836001611622565b505050565b6000610f1a8484846117e7565b90509392505050565b610f2b610ef3565b73ffffffffffffffffffffffffffffffffffffffff16610f49610a4d565b73ffffffffffffffffffffffffffffffffffffffff1614610fa857610f6c610ef3565b6040517f118cdaa7000000000000000000000000000000000000000000000000000000008152600401610f9f91906129bc565b60405180910390fd5b565b6000600b60009054906101000a900473ffffffffffffffffffffffffffffffffffffffff16905081600b60006101000a81548173ffffffffffffffffffffffffffffffffffffffff021916908373ffffffffffffffffffffffffffffffffffffffff1602179055508173ffffffffffffffffffffffffffffffffffffffff168173ffffffffffffffffffffffffffffffffffffffff167f8be0079c531659141344cd1fd0a4f28419497f9722a3daafe3b4186f6b6457e060405160405180910390a35050565b600061107f6000836000610f0d565b9050600073ffffffffffffffffffffffffffffffffffffffff168173ffffffffffffffffffffffffffffffffffffffff16036110f257816040517f7e2732890000000000000000000000000000000000000000000000000000000081526004016110e99190612a52565b60405180910390fd5b5050565b600073ffffffffffffffffffffffffffffffffffffffff168273ffffffffffffffffffffffffffffffffffffffff160361116757816040517f5b08ba1800000000000000000000000000000000000000000000000000000000815260040161115e91906129bc565b60405180910390fd5b80600560008573ffffffffffffffffffffffffffffffffffffffff1673ffffffffffffffffffffffffffffffffffffffff16815260200190815260200160002060008473ffffffffffffffffffffffffffffffffffffffff1673ffffffffffffffffffffffffffffffffffffffff16815260200190815260200160002060006101000a81548160ff0219169083151502179055508173ffffffffffffffffffffffffffffffffffffffff168373ffffffffffffffffffffffffffffffffffffffff167f17307eab39ab6107e8899845ad3d59bd9653f200f220920489ca2b5937696c318360405161125891906126cd565b60405180910390a3505050565b61128083838360405180602001604052806000815250611904565b505050565b60008373ffffffffffffffffffffffffffffffffffffffff163b1115611436578273ffffffffffffffffffffffffffffffffffffffff1663150b7a026112c9610ef3565b8685856040518563ffffffff1660e01b81526004016112eb94939291906132a0565b6020604051808303816000875af192505050801561132757506040513d601f19601f820116820180604052508101906113249190613301565b60015b6113ab573d8060008114611357576040519150601f19603f3d011682016040523d82523d6000602084013e61135c565b606091505b5060008151036113a357836040517f64a0ae9200000000000000000000000000000000000000000000000000000000815260040161139a91906129bc565b60405180910390fd5b805181602001fd5b63150b7a0260e01b7bffffffffffffffffffffffffffffffffffffffffffffffffffffffff1916817bffffffffffffffffffffffffffffffffffffffffffffffffffffffff19161461143457836040517f64a0ae9200000000000000000000000000000000000000000000000000000000815260040161142b91906129bc565b60405180910390fd5b505b50505050565b606061144782610e2e565b506000600a6000848152602001908152602001600020805461146890612da3565b80601f016020809104026020016040519081016040528092919081815260200182805461149490612da3565b80156114e15780601f106114b6576101008083540402835291602001916114e1565b820191906000526020600020905b8154815290600101906020018083116114c457829003601f168201915b5050505050905060006114f2611921565b9050600081510361150757819250505061154a565b60008251111561153c57808260405160200161152492919061336a565b6040516020818303038152906040529250505061154a565b61154584611938565b925050505b919050565b60007f780e9d63000000000000000000000000000000000000000000000000000000007bffffffffffffffffffffffffffffffffffffffffffffffffffffffff1916827bffffffffffffffffffffffffffffffffffffffffffffffffffffffff191614806115c257506115c1826119a1565b5b9050919050565b6115d38383611a83565b6115e06000848484611285565b505050565b60006002600083815260200190815260200160002060009054906101000a900473ffffffffffffffffffffffffffffffffffffffff169050919050565b808061165b5750600073ffffffffffffffffffffffffffffffffffffffff168273ffffffffffffffffffffffffffffffffffffffff1614155b1561178f57600061166b84610e2e565b9050600073ffffffffffffffffffffffffffffffffffffffff168373ffffffffffffffffffffffffffffffffffffffff16141580156116d657508273ffffffffffffffffffffffffffffffffffffffff168173ffffffffffffffffffffffffffffffffffffffff1614155b80156116e957506116e78184610c39565b155b1561172b57826040517fa9fbf51f00000000000000000000000000000000000000000000000000000000815260040161172291906129bc565b60405180910390fd5b811561178d57838573ffffffffffffffffffffffffffffffffffffffff168273ffffffffffffffffffffffffffffffffffffffff167f8c5be1e5ebec7d5bd14f71427d1e84f3dd0314c0f7b2291e5b200ac8c7c3b92560405160405180910390a45b505b836004600085815260200190815260200160002060006101000a81548173ffffffffffffffffffffffffffffffffffffffff021916908373ffffffffffffffffffffffffffffffffffffffff16021790555050505050565b6000806117f5858585611b7c565b9050600073ffffffffffffffffffffffffffffffffffffffff168173ffffffffffffffffffffffffffffffffffffffff16036118395761183484611d96565b611878565b8473ffffffffffffffffffffffffffffffffffffffff168173ffffffffffffffffffffffffffffffffffffffff1614611877576118768185611ddf565b5b5b600073ffffffffffffffffffffffffffffffffffffffff168573ffffffffffffffffffffffffffffffffffffffff16036118ba576118b584611f40565b6118f9565b8473ffffffffffffffffffffffffffffffffffffffff168173ffffffffffffffffffffffffffffffffffffffff16146118f8576118f78585612011565b5b5b809150509392505050565b61190f84848461209c565b61191b84848484611285565b50505050565b606060405180602001604052806000815250905090565b606061194382610e2e565b50600061194e611921565b9050600081511161196e5760405180602001604052806000815250611999565b8061197884612209565b60405160200161198992919061336a565b6040516020818303038152906040525b915050919050565b60007f80ac58cd000000000000000000000000000000000000000000000000000000007bffffffffffffffffffffffffffffffffffffffffffffffffffffffff1916827bffffffffffffffffffffffffffffffffffffffffffffffffffffffff19161480611a6c57507f5b5e139f000000000000000000000000000000000000000000000000000000007bffffffffffffffffffffffffffffffffffffffffffffffffffffffff1916827bffffffffffffffffffffffffffffffffffffffffffffffffffffffff1916145b80611a7c5750611a7b826122d7565b5b9050919050565b600073ffffffffffffffffffffffffffffffffffffffff168273ffffffffffffffffffffffffffffffffffffffff1603611af55760006040517f64a0ae92000000000000000000000000000000000000000000000000000000008152600401611aec91906129bc565b60405180910390fd5b6000611b0383836000610f0d565b9050600073ffffffffffffffffffffffffffffffffffffffff168173ffffffffffffffffffffffffffffffffffffffff1614611b775760006040517f73c6ac6e000000000000000000000000000000000000000000000000000000008152600401611b6e91906129bc565b60405180910390fd5b505050565b600080611b88846115e5565b9050600073ffffffffffffffffffffffffffffffffffffffff168373ffffffffffffffffffffffffffffffffffffffff1614611bca57611bc9818486612341565b5b600073ffffffffffffffffffffffffffffffffffffffff168173ffffffffffffffffffffffffffffffffffffffff1614611c5b57611c0c600085600080611622565b6001600360008373ffffffffffffffffffffffffffffffffffffffff1673ffffffffffffffffffffffffffffffffffffffff168152602001908152602001600020600082825403925050819055505b600073ffffffffffffffffffffffffffffffffffffffff168573ffffffffffffffffffffffffffffffffffffffff1614611cde576001600360008773ffffffffffffffffffffffffffffffffffffffff1673ffffffffffffffffffffffffffffffffffffffff168152602001908152602001600020600082825401925050819055505b846002600086815260200190815260200160002060006101000a81548173ffffffffffffffffffffffffffffffffffffffff021916908373ffffffffffffffffffffffffffffffffffffffff160217905550838573ffffffffffffffffffffffffffffffffffffffff168273ffffffffffffffffffffffffffffffffffffffff167fddf252ad1be2c89b69c2b068fc378daa952ba7f163c4a11628f55a4df523b3ef60405160405180910390a4809150509392505050565b6008805490506009600083815260200190815260200160002081905550600881908060018154018082558091505060019003906000526020600020016000909190919091505550565b6000611dea836108fd565b9050600060076000848152602001908152602001600020549050818114611ecf576000600660008673ffffffffffffffffffffffffffffffffffffffff1673ffffffffffffffffffffffffffffffffffffffff168152602001908152602001600020600084815260200190815260200160002054905080600660008773ffffffffffffffffffffffffffffffffffffffff1673ffffffffffffffffffffffffffffffffffffffff168152602001908152602001600020600084815260200190815260200160002081905550816007600083815260200190815260200160002081905550505b6007600084815260200190815260200160002060009055600660008573ffffffffffffffffffffffffffffffffffffffff1673ffffffffffffffffffffffffffffffffffffffff16815260200190815260200160002060008381526020019081526020016000206000905550505050565b60006001600880549050611f54919061338e565b9050600060096000848152602001908152602001600020549050600060088381548110611f8457611f83612e34565b5b906000526020600020015490508060088381548110611fa657611fa5612e34565b5b906000526020600020018190555081600960008381526020019081526020016000208190555060096000858152602001908152602001600020600090556008805480611ff557611ff46133c2565b5b6001900381819060005260206000200160009055905550505050565b6000600161201e846108fd565b612028919061338e565b905081600660008573ffffffffffffffffffffffffffffffffffffffff1673ffffffffffffffffffffffffffffffffffffffff168152602001908152602001600020600083815260200190815260200160002081905550806007600084815260200190815260200160002081905550505050565b600073ffffffffffffffffffffffffffffffffffffffff168273ffffffffffffffffffffffffffffffffffffffff160361210e5760006040517f64a0ae9200000000000000000000000000000000000000000000000000000000815260040161210591906129bc565b60405180910390fd5b600061211c83836000610f0d565b9050600073ffffffffffffffffffffffffffffffffffffffff168173ffffffffffffffffffffffffffffffffffffffff160361218f57816040517f7e2732890000000000000000000000000000000000000000000000000000000081526004016121869190612a52565b60405180910390fd5b8373ffffffffffffffffffffffffffffffffffffffff168173ffffffffffffffffffffffffffffffffffffffff1614612203578382826040517f64283d7b0000000000000000000000000000000000000000000000000000000081526004016121fa93929190612dd4565b60405180910390fd5b50505050565b60606000600161221884612405565b01905060008167ffffffffffffffff81111561223757612236612703565b5b6040519080825280601f01601f1916602001820160405280156122695781602001600182028036833780820191505090505b509050600082602001820190505b6001156122cc578080600190039150507f3031323334353637383961626364656600000000000000000000000000000000600a86061a8153600a85816122c0576122bf6133f1565b5b04945060008503612277575b819350505050919050565b60007f01ffc9a7000000000000000000000000000000000000000000000000000000007bffffffffffffffffffffffffffffffffffffffffffffffffffffffff1916827bffffffffffffffffffffffffffffffffffffffffffffffffffffffff1916149050919050565b61234c838383612558565b61240057600073ffffffffffffffffffffffffffffffffffffffff168373ffffffffffffffffffffffffffffffffffffffff16036123c157806040517f7e2732890000000000000000000000000000000000000000000000000000000081526004016123b89190612a52565b60405180910390fd5b81816040517f177e802f0000000000000000000000000000000000000000000000000000000081526004016123f7929190612e0b565b60405180910390fd5b505050565b600080600090507a184f03e93ff9f4daa797ed6e38ed64bf6a1f0100000000000000008310612463577a184f03e93ff9f4daa797ed6e38ed64bf6a1f0100000000000000008381612459576124586133f1565b5b0492506040810190505b6d04ee2d6d415b85acef810000000083106124a0576d04ee2d6d415b85acef81000000008381612496576124956133f1565b5b0492506020810190505b662386f26fc1000083106124cf57662386f26fc1000083816124c5576124c46133f1565b5b0492506010810190505b6305f5e10083106124f8576305f5e10083816124ee576124ed6133f1565b5b0492506008810190505b612710831061251d576127108381612513576125126133f1565b5b0492506004810190505b606483106125405760648381612536576125356133f1565b5b0492506002810190505b600a831061254f576001810190505b80915050919050565b60008073ffffffffffffffffffffffffffffffffffffffff168373ffffffffffffffffffffffffffffffffffffffff161415801561261057508273ffffffffffffffffffffffffffffffffffffffff168473ffffffffffffffffffffffffffffffffffffffff1614806125d157506125d08484610c39565b5b8061260f57508273ffffffffffffffffffffffffffffffffffffffff166125f783610eb6565b73ffffffffffffffffffffffffffffffffffffffff16145b5b90509392505050565b6000604051905090565b600080fd5b600080fd5b60007fffffffff0000000000000000000000000000000000000000000000000000000082169050919050565b6126628161262d565b811461266d57600080fd5b50565b60008135905061267f81612659565b92915050565b60006020828403121561269b5761269a612623565b5b60006126a984828501612670565b91505092915050565b60008115159050919050565b6126c7816126b2565b82525050565b60006020820190506126e260008301846126be565b92915050565b600080fd5b600080fd5b6000601f19601f8301169050919050565b7f4e487b7100000000000000000000000000000000000000000000000000000000600052604160045260246000fd5b61273b826126f2565b810181811067ffffffffffffffff8211171561275a57612759612703565b5b80604052505050565b600061276d612619565b90506127798282612732565b919050565b600067ffffffffffffffff82111561279957612798612703565b5b6127a2826126f2565b9050602081019050919050565b82818337600083830152505050565b60006127d16127cc8461277e565b612763565b9050828152602081018484840111156127ed576127ec6126ed565b5b6127f88482856127af565b509392505050565b600082601f830112612815576128146126e8565b5b81356128258482602086016127be565b91505092915050565b60006020828403121561284457612843612623565b5b600082013567ffffffffffffffff81111561286257612861612628565b5b61286e84828501612800565b91505092915050565b600081519050919050565b600082825260208201905092915050565b60005b838110156128b1578082015181840152602081019050612896565b60008484015250505050565b60006128c882612877565b6128d28185612882565b93506128e2818560208601612893565b6128eb816126f2565b840191505092915050565b6000602082019050818103600083015261291081846128bd565b905092915050565b6000819050919050565b61292b81612918565b811461293657600080fd5b50565b60008135905061294881612922565b92915050565b60006020828403121561296457612963612623565b5b600061297284828501612939565b91505092915050565b600073ffffffffffffffffffffffffffffffffffffffff82169050919050565b60006129a68261297b565b9050919050565b6129b68161299b565b82525050565b60006020820190506129d160008301846129ad565b92915050565b6129e08161299b565b81146129eb57600080fd5b50565b6000813590506129fd816129d7565b92915050565b60008060408385031215612a1a57612a19612623565b5b6000612a28858286016129ee565b9250506020612a3985828601612939565b9150509250929050565b612a4c81612918565b82525050565b6000602082019050612a676000830184612a43565b92915050565b600080600060608486031215612a8657612a85612623565b5b6000612a94868287016129ee565b9350506020612aa5868287016129ee565b9250506040612ab686828701612939565b9150509250925092565b600060208284031215612ad657612ad5612623565b5b6000612ae4848285016129ee565b91505092915050565b612af6816126b2565b8114612b0157600080fd5b50565b600081359050612b1381612aed565b92915050565b60008060408385031215612b3057612b2f612623565b5b6000612b3e858286016129ee565b9250506020612b4f85828601612b04565b9150509250929050565b60008060408385031215612b7057612b6f612623565b5b6000612b7e85828601612939565b9250506020612b8f85828601612939565b9150509250929050565b600067ffffffffffffffff821115612bb457612bb3612703565b5b612bbd826126f2565b9050602081019050919050565b6000612bdd612bd884612b99565b612763565b905082815260208101848484011115612bf957612bf86126ed565b5b612c048482856127af565b509392505050565b600082601f830112612c2157612c206126e8565b5b8135612c31848260208601612bca565b91505092915050565b60008060008060808587031215612c5457612c53612623565b5b6000612c62878288016129ee565b9450506020612c73878288016129ee565b9350506040612c8487828801612939565b925050606085013567ffffffffffffffff811115612ca557612ca4612628565b5b612cb187828801612c0c565b91505092959194509250565b60008060408385031215612cd457612cd3612623565b5b6000612ce2858286016129ee565b9250506020612cf3858286016129ee565b9150509250929050565b7f4e487b7100000000000000000000000000000000000000000000000000000000600052601160045260246000fd5b6000612d3782612918565b91507fffffffffffffffffffffffffffffffffffffffffffffffffffffffffffffffff8203612d6957612d68612cfd565b5b600182019050919050565b7f4e487b7100000000000000000000000000000000000000000000000000000000600052602260045260246000fd5b60006002820490506001821680612dbb57607f821691505b602082108103612dce57612dcd612d74565b5b50919050565b6000606082019050612de960008301866129ad565b612df66020830185612a43565b612e0360408301846129ad565b949350505050565b6000604082019050612e2060008301856129ad565b612e2d6020830184612a43565b9392505050565b7f4e487b7100000000000000000000000000000000000000000000000000000000600052603260045260246000fd5b7f596f7520617265206e6f7420746865206f776e6572206f66207468697320707260008201527f6f70657274790000000000000000000000000000000000000000000000000000602082015250565b6000612ebf602683612882565b9150612eca82612e63565b604082019050919050565b60006020820190508181036000830152612eee81612eb2565b9050919050565b7f496e73756666696369656e742066756e64730000000000000000000000000000600082015250565b6000612f2b601283612882565b9150612f3682612ef5565b602082019050919050565b60006020820190508181036000830152612f5a81612f1e565b9050919050565b7f496e76616c696420746f6b656e49640000000000000000000000000000000000600082015250565b6000612f97600f83612882565b9150612fa282612f61565b602082019050919050565b60006020820190508181036000830152612fc681612f8a565b9050919050565b60008190508160005260206000209050919050565b60006020601f8301049050919050565b600082821b905092915050565b60006008830261302f7fffffffffffffffffffffffffffffffffffffffffffffffffffffffffffffffff82612ff2565b6130398683612ff2565b95508019841693508086168417925050509392505050565b6000819050919050565b600061307661307161306c84612918565b613051565b612918565b9050919050565b6000819050919050565b6130908361305b565b6130a461309c8261307d565b848454612fff565b825550505050565b600090565b6130b96130ac565b6130c4818484613087565b505050565b5b818110156130e8576130dd6000826130b1565b6001810190506130ca565b5050565b601f82111561312d576130fe81612fcd565b61310784612fe2565b81016020851015613116578190505b61312a61312285612fe2565b8301826130c9565b50505b505050565b600082821c905092915050565b600061315060001984600802613132565b1980831691505092915050565b6000613169838361313f565b9150826002028217905092915050565b61318282612877565b67ffffffffffffffff81111561319b5761319a612703565b5b6131a58254612da3565b6131b08282856130ec565b600060209050601f8311600181146131e357600084156131d1578287015190505b6131db858261315d565b865550613243565b601f1984166131f186612fcd565b60005b82811015613219578489015182556001820191506020850194506020810190506131f4565b868310156132365784890151613232601f89168261313f565b8355505b6001600288020188555050505b505050505050565b600081519050919050565b600082825260208201905092915050565b60006132728261324b565b61327c8185613256565b935061328c818560208601612893565b613295816126f2565b840191505092915050565b60006080820190506132b560008301876129ad565b6132c260208301866129ad565b6132cf6040830185612a43565b81810360608301526132e18184613267565b905095945050505050565b6000815190506132fb81612659565b92915050565b60006020828403121561331757613316612623565b5b6000613325848285016132ec565b91505092915050565b600081905092915050565b600061334482612877565b61334e818561332e565b935061335e818560208601612893565b80840191505092915050565b60006133768285613339565b91506133828284613339565b91508190509392505050565b600061339982612918565b91506133a483612918565b92508282039050818111156133bc576133bb612cfd565b5b92915050565b7f4e487b7100000000000000000000000000000000000000000000000000000000600052603160045260246000fd5b7f4e487b7100000000000000000000000000000000000000000000000000000000600052601260045260246000fdfea264697066735822122038ac71baf4894f9bf4c131c81ca6483133d0724aefb87ec5574ad9403c1809a964736f6c63430008180033",
  "linkReferences": {},
  "deployedLinkReferences": {}
}