{
  "_format": "hh-sol-artifact-1",
  "contractName": "RealEstateNFT",
  "sourceName": "contracts/RealEstateNFT.sol",
  "abi": [
    {
      "inputs": [
        {
          "internalType": "address",
          "name": "initialOwner",
          "type": "address"
        },
        {
          "internalType": "string",
          "name": "name",
          "type": "string"
        },
        {
          "internalType": "string",
          "name": "symbol",
          "type": "string"
        }
      ],
      "stateMutability": "nonpayable",
      "type": "constructor"
    },
    {
      "inputs": [],
      "name": "ERC721EnumerableForbiddenBatchMint",
      "type": "error"
    },
    {
      "inputs": [
        {
          "internalType": "address",
          "name": "sender",
          "type": "address"
        },
        {
          "internalType": "uint256",
          "name": "tokenId",
          "type": "uint256"
        },
        {
          "internalType": "address",
          "name": "owner",
          "type": "address"
        }
      ],
      "name": "ERC721IncorrectOwner",
      "type": "error"
    },
    {
      "inputs": [
        {
          "internalType": "address",
          "name": "operator",
          "type": "address"
        },
        {
          "internalType": "uint256",
          "name": "tokenId",
          "type": "uint256"
        }
      ],
      "name": "ERC721InsufficientApproval",
      "type": "error"
    },
    {
      "inputs": [
        {
          "internalType": "address",
          "name": "approver",
          "type": "address"
        }
      ],
      "name": "ERC721InvalidApprover",
      "type": "error"
    },
    {
      "inputs": [
        {
          "internalType": "address",
          "name": "operator",
          "type": "address"
        }
      ],
      "name": "ERC721InvalidOperator",
      "type": "error"
    },
    {
      "inputs": [
        {
          "internalType": "address",
          "name": "owner",
          "type": "address"
        }
      ],
      "name": "ERC721InvalidOwner",
      "type": "error"
    },
    {
      "inputs": [
        {
          "internalType": "address",
          "name": "receiver",
          "type": "address"
        }
      ],
      "name": "ERC721InvalidReceiver",
      "type": "error"
    },
    {
      "inputs": [
        {
          "internalType": "address",
          "name": "sender",
          "type": "address"
        }
      ],
      "name": "ERC721InvalidSender",
      "type": "error"
    },
    {
      "inputs": [
        {
          "internalType": "uint256",
          "name": "tokenId",
          "type": "uint256"
        }
      ],
      "name": "ERC721NonexistentToken",
      "type": "error"
    },
    {
      "inputs": [
        {
          "internalType": "address",
          "name": "owner",
          "type": "address"
        },
        {
          "internalType": "uint256",
          "name": "index",
          "type": "uint256"
        }
      ],
      "name": "ERC721OutOfBoundsIndex",
      "type": "error"
    },
    {
      "inputs": [
        {
          "internalType": "address",
          "name": "owner",
          "type": "address"
        }
      ],
      "name": "OwnableInvalidOwner",
      "type": "error"
    },
    {
      "inputs": [
        {
          "internalType": "address",
          "name": "account",
          "type": "address"
        }
      ],
      "name": "OwnableUnauthorizedAccount",
      "type": "error"
    },
    {
      "anonymous": false,
      "inputs": [
        {
          "indexed": true,
          "internalType": "address",
          "name": "owner",
          "type": "address"
        },
        {
          "indexed": true,
          "internalType": "address",
          "name": "approved",
          "type": "address"
        },
        {
          "indexed": true,
          "internalType": "uint256",
          "name": "tokenId",
          "type": "uint256"
        }
      ],
      "name": "Approval",
      "type": "event"
    },
    {
      "anonymous": false,
      "inputs": [
        {
          "indexed": true,
          "internalType": "address",
          "name": "owner",
          "type": "address"
        },
        {
          "indexed": true,
          "internalType": "address",
          "name": "operator",
          "type": "address"
        },
        {
          "indexed": false,
          "internalType": "bool",
          "name": "approved",
          "type": "bool"
        }
      ],
      "name": "ApprovalForAll",
      "type": "event"
    },
    {
      "anonymous": false,
      "inputs": [
        {
          "indexed": false,
          "internalType": "uint256",
          "name": "_fromTokenId",
          "type": "uint256"
        },
        {
          "indexed": false,
          "internalType": "uint256",
          "name": "_toTokenId",
          "type": "uint256"
        }
      ],
      "name": "BatchMetadataUpdate",
      "type": "event"
    },
    {
      "anonymous": false,
      "inputs": [
        {
          "indexed": false,
          "internalType": "uint256",
          "name": "_tokenId",
          "type": "uint256"
        }
      ],
      "name": "MetadataUpdate",
      "type": "event"
    },
    {
      "anonymous": false,
      "inputs": [
        {
          "indexed": true,
          "internalType": "address",
          "name": "previousOwner",
          "type": "address"
        },
        {
          "indexed": true,
          "internalType": "address",
          "name": "newOwner",
          "type": "address"
        }
      ],
      "name": "OwnershipTransferred",
      "type": "event"
    },
    {
      "anonymous": false,
      "inputs": [
        {
          "indexed": true,
          "internalType": "address",
          "name": "from",
          "type": "address"
        },
        {
          "indexed": true,
          "internalType": "address",
          "name": "to",
          "type": "address"
        },
        {
          "indexed": true,
          "internalType": "uint256",
          "name": "tokenId",
          "type": "uint256"
        }
      ],
      "name": "Transfer",
      "type": "event"
    },
    {
      "inputs": [
        {
          "internalType": "address",
          "name": "to",
          "type": "address"
        },
        {
          "internalType": "uint256",
          "name": "tokenId",
          "type": "uint256"
        }
      ],
      "name": "approve",
      "outputs": [],
      "stateMutability": "nonpayable",
      "type": "function"
    },
    {
      "inputs": [
        {
          "internalType": "address",
          "name": "owner",
          "type": "address"
        }
      ],
      "name": "balanceOf",
      "outputs": [
        {
          "internalType": "uint256",
          "name": "",
          "type": "uint256"
        }
      ],
      "stateMutability": "view",
      "type": "function"
    },
    {
      "inputs": [
        {
          "internalType": "uint256",
          "name": "tokenId",
          "type": "uint256"
        }
      ],
      "name": "burn",
      "outputs": [],
      "stateMutability": "nonpayable",
      "type": "function"
    },
    {
      "inputs": [
        {
          "internalType": "uint256",
          "name": "tokenId",
          "type": "uint256"
        },
        {
          "internalType": "uint256",
          "name": "price",
          "type": "uint256"
        }
      ],
      "name": "buyProperty",
      "outputs": [],
      "stateMutability": "payable",
      "type": "function"
    },
    {
      "inputs": [
        {
          "internalType": "uint256",
          "name": "tokenId",
          "type": "uint256"
        }
      ],
      "name": "getApproved",
      "outputs": [
        {
          "internalType": "address",
          "name": "",
          "type": "address"
        }
      ],
      "stateMutability": "view",
      "type": "function"
    },
    {
      "inputs": [
        {
          "internalType": "address",
          "name": "owner",
          "type": "address"
        },
        {
          "internalType": "address",
          "name": "operator",
          "type": "address"
        }
      ],
      "name": "isApprovedForAll",
      "outputs": [
        {
          "internalType": "bool",
          "name": "",
          "type": "bool"
        }
      ],
      "stateMutability": "view",
      "type": "function"
    },
    {
      "inputs": [
        {
          "internalType": "string",
          "name": "uri",
          "type": "string"
        }
      ],
      "name": "listProperty",
      "outputs": [
        {
          "internalType": "uint256",
          "name": "",
          "type": "uint256"
        }
      ],
      "stateMutability": "nonpayable",
      "type": "function"
    },
    {
      "inputs": [],
      "name": "name",
      "outputs": [
        {
          "internalType": "string",
          "name": "",
          "type": "string"
        }
      ],
      "stateMutability": "view",
      "type": "function"
    },
    {
      "inputs": [],
      "name": "owner",
      "outputs": [
        {
          "internalType": "address",
          "name": "",
          "type": "address"
        }
      ],
      "stateMutability": "view",
      "type": "function"
    },
    {
      "inputs": [
        {
          "internalType": "uint256",
          "name": "tokenId",
          "type": "uint256"
        }
      ],
      "name": "ownerOf",
      "outputs": [
        {
          "internalType": "address",
          "name": "",
          "type": "address"
        }
      ],
      "stateMutability": "view",
      "type": "function"
    },
    {
      "inputs": [],
      "name": "renounceOwnership",
      "outputs": [],
      "stateMutability": "nonpayable",
      "type": "function"
    },
    {
      "inputs": [
        {
          "internalType": "address",
          "name": "from",
          "type": "address"
        },
        {
          "internalType": "address",
          "name": "to",
          "type": "address"
        },
        {
          "internalType": "uint256",
          "name": "tokenId",
          "type": "uint256"
        }
      ],
      "name": "safeTransferFrom",
      "outputs": [],
      "stateMutability": "nonpayable",
      "type": "function"
    },
    {
      "inputs": [
        {
          "internalType": "address",
          "name": "from",
          "type": "address"
        },
        {
          "internalType": "address",
          "name": "to",
          "type": "address"
        },
        {
          "internalType": "uint256",
          "name": "tokenId",
          "type": "uint256"
        },
        {
          "internalType": "bytes",
          "name": "data",
          "type": "bytes"
        }
      ],
      "name": "safeTransferFrom",
      "outputs": [],
      "stateMutability": "nonpayable",
      "type": "function"
    },
    {
      "inputs": [
        {
          "internalType": "address",
          "name": "operator",
          "type": "address"
        },
        {
          "internalType": "bool",
          "name": "approved",
          "type": "bool"
        }
      ],
      "name": "setApprovalForAll",
      "outputs": [],
      "stateMutability": "nonpayable",
      "type": "function"
    },
    {
      "inputs": [
        {
          "internalType": "bytes4",
          "name": "interfaceId",
          "type": "bytes4"
        }
      ],
      "name": "supportsInterface",
      "outputs": [
        {
          "internalType": "bool",
          "name": "",
          "type": "bool"
        }
      ],
      "stateMutability": "view",
      "type": "function"
    },
    {
      "inputs": [],
      "name": "symbol",
      "outputs": [
        {
          "internalType": "string",
          "name": "",
          "type": "string"
        }
      ],
      "stateMutability": "view",
      "type": "function"
    },
    {
      "inputs": [
        {
          "internalType": "uint256",
          "name": "index",
          "type": "uint256"
        }
      ],
      "name": "tokenByIndex",
      "outputs": [
        {
          "internalType": "uint256",
          "name": "",
          "type": "uint256"
        }
      ],
      "stateMutability": "view",
      "type": "function"
    },
    {
      "inputs": [
        {
          "internalType": "address",
          "name": "owner",
          "type": "address"
        },
        {
          "internalType": "uint256",
          "name": "index",
          "type": "uint256"
        }
      ],
      "name": "tokenOfOwnerByIndex",
      "outputs": [
        {
          "internalType": "uint256",
          "name": "",
          "type": "uint256"
        }
      ],
      "stateMutability": "view",
      "type": "function"
    },
    {
      "inputs": [
        {
          "internalType": "uint256",
          "name": "tokenId",
          "type": "uint256"
        }
      ],
      "name": "tokenURI",
      "outputs": [
        {
          "internalType": "string",
          "name": "",
          "type": "string"
        }
      ],
      "stateMutability": "view",
      "type": "function"
    },
    {
      "inputs": [],
      "name": "totalSupply",
      "outputs": [
        {
          "internalType": "uint256",
          "name": "",
          "type": "uint256"
        }
      ],
      "stateMutability": "view",
      "type": "function"
    },
    {
      "inputs": [
        {
          "internalType": "address",
          "name": "from",
          "type": "address"
        },
        {
          "internalType": "address",
          "name": "to",
          "type": "address"
        },
        {
          "internalType": "uint256",
          "name": "tokenId",
          "type": "uint256"
        }
      ],
      "name": "transferFrom",
      "outputs": [],
      "stateMutability": "nonpayable",
      "type": "function"
    },
    {
      "inputs": [
        {
          "internalType": "address",
          "name": "newOwner",
          "type": "address"
        }
      ],
      "name": "transferOwnership",
      "outputs": [],
      "stateMutability": "nonpayable",
      "type": "function"
    },
    {
      "inputs": [
        {
          "internalType": "uint256",
          "name": "tokenId",
          "type": "uint256"
        }
      ],
      "name": "unlistProperty",
      "outputs": [],
      "stateMutability": "nonpayable",
      "type": "function"
    }
  ],
  "bytecode": "0x60806040523480156200001157600080fd5b5060405162003c2838038062003c288339818101604052810190620000379190620003ae565b82828281600090816200004b919062000693565b5080600190816200005d919062000693565b505050600073ffffffffffffffffffffffffffffffffffffffff168173ffffffffffffffffffffffffffffffffffffffff1603620000d55760006040517f1e4fbdf7000000000000000000000000000000000000000000000000000000008152600401620000cc91906200078b565b60405180910390fd5b620000e681620000f060201b60201c565b50505050620007a8565b6000600b60009054906101000a900473ffffffffffffffffffffffffffffffffffffffff16905081600b60006101000a81548173ffffffffffffffffffffffffffffffffffffffff021916908373ffffffffffffffffffffffffffffffffffffffff1602179055508173ffffffffffffffffffffffffffffffffffffffff168173ffffffffffffffffffffffffffffffffffffffff167f8be0079c531659141344cd1fd0a4f28419497f9722a3daafe3b4186f6b6457e060405160405180910390a35050565b6000604051905090565b600080fd5b600080fd5b600073ffffffffffffffffffffffffffffffffffffffff82169050919050565b6000620001f782620001ca565b9050919050565b6200020981620001ea565b81146200021557600080fd5b50565b6000815190506200022981620001fe565b92915050565b600080fd5b600080fd5b6000601f19601f8301169050919050565b7f4e487b7100000000000000000000000000000000000000000000000000000000600052604160045260246000fd5b620002848262000239565b810181811067ffffffffffffffff82111715620002a657620002a56200024a565b5b80604052505050565b6000620002bb620001b6565b9050620002c9828262000279565b919050565b600067ffffffffffffffff821115620002ec57620002eb6200024a565b5b620002f78262000239565b9050602081019050919050565b60005b838110156200032457808201518184015260208101905062000307565b60008484015250505050565b6000620003476200034184620002ce565b620002af565b90508281526020810184848401111562000366576200036562000234565b5b6200037384828562000304565b509392505050565b600082601f8301126200039357620003926200022f565b5b8151620003a584826020860162000330565b91505092915050565b600080600060608486031215620003ca57620003c9620001c0565b5b6000620003da8682870162000218565b935050602084015167ffffffffffffffff811115620003fe57620003fd620001c5565b5b6200040c868287016200037b565b925050604084015167ffffffffffffffff81111562000430576200042f620001c5565b5b6200043e868287016200037b565b9150509250925092565b600081519050919050565b7f4e487b7100000000000000000000000000000000000000000000000000000000600052602260045260246000fd5b600060028204905060018216806200049b57607f821691505b602082108103620004b157620004b062000453565b5b50919050565b60008190508160005260206000209050919050565b60006020601f8301049050919050565b600082821b905092915050565b6000600883026200051b7fffffffffffffffffffffffffffffffffffffffffffffffffffffffffffffffff82620004dc565b620005278683620004dc565b95508019841693508086168417925050509392505050565b6000819050919050565b6000819050919050565b6000620005746200056e62000568846200053f565b62000549565b6200053f565b9050919050565b6000819050919050565b620005908362000553565b620005a86200059f826200057b565b848454620004e9565b825550505050565b600090565b620005bf620005b0565b620005cc81848462000585565b505050565b5b81811015620005f457620005e8600082620005b5565b600181019050620005d2565b5050565b601f82111562000643576200060d81620004b7565b6200061884620004cc565b8101602085101562000628578190505b620006406200063785620004cc565b830182620005d1565b50505b505050565b600082821c905092915050565b6000620006686000198460080262000648565b1980831691505092915050565b600062000683838362000655565b9150826002028217905092915050565b6200069e8262000448565b67ffffffffffffffff811115620006ba57620006b96200024a565b5b620006c6825462000482565b620006d3828285620005f8565b600060209050601f8311600181146200070b5760008415620006f6578287015190505b62000702858262000675565b86555062000772565b601f1984166200071b86620004b7565b60005b8281101562000745578489015182556001820191506020850194506020810190506200071e565b8683101562000765578489015162000761601f89168262000655565b8355505b6001600288020188555050505b505050505050565b6200078581620001ea565b82525050565b6000602082019050620007a260008301846200077a565b92915050565b61347080620007b86000396000f3fe6080604052600436106101405760003560e01c80636352211e116100b6578063a22cb4651161006f578063a22cb46514610480578063a772c927146104a9578063b88d4fde146104c5578063c87b56dd146104ee578063e985e9c51461052b578063f2fde38b1461056857610140565b80636352211e1461037057806370a08231146103ad578063715018a6146103ea578063841ad8b9146104015780638da5cb5b1461042a57806395d89b411461045557610140565b806318160ddd1161010857806318160ddd1461025057806323b872dd1461027b5780632f745c59146102a457806342842e0e146102e157806342966c681461030a5780634f6ccce71461033357610140565b806301ffc9a7146101455780630670d0841461018257806306fdde03146101bf578063081812fc146101ea578063095ea7b314610227575b600080fd5b34801561015157600080fd5b5061016c6004803603810190610167919061269f565b610591565b60405161017991906126e7565b60405180910390f35b34801561018e57600080fd5b506101a960048036038101906101a49190612848565b6105a3565b6040516101b691906128aa565b60405180910390f35b3480156101cb57600080fd5b506101d46105dc565b6040516101e19190612944565b60405180910390f35b3480156101f657600080fd5b50610211600480360381019061020c9190612992565b61066e565b60405161021e9190612a00565b60405180910390f35b34801561023357600080fd5b5061024e60048036038101906102499190612a47565b61068a565b005b34801561025c57600080fd5b506102656106a0565b60405161027291906128aa565b60405180910390f35b34801561028757600080fd5b506102a2600480360381019061029d9190612a87565b6106ad565b005b3480156102b057600080fd5b506102cb60048036038101906102c69190612a47565b6107af565b6040516102d891906128aa565b60405180910390f35b3480156102ed57600080fd5b5061030860048036038101906103039190612a87565b610858565b005b34801561031657600080fd5b50610331600480360381019061032c9190612992565b610878565b005b34801561033f57600080fd5b5061035a60048036038101906103559190612992565b61088f565b60405161036791906128aa565b60405180910390f35b34801561037c57600080fd5b5061039760048036038101906103929190612992565b610905565b6040516103a49190612a00565b60405180910390f35b3480156103b957600080fd5b506103d460048036038101906103cf9190612ada565b610917565b6040516103e191906128aa565b60405180910390f35b3480156103f657600080fd5b506103ff6109d1565b005b34801561040d57600080fd5b5061042860048036038101906104239190612992565b6109e5565b005b34801561043657600080fd5b5061043f610a67565b60405161044c9190612a00565b60405180910390f35b34801561046157600080fd5b5061046a610a91565b6040516104779190612944565b60405180910390f35b34801561048c57600080fd5b506104a760048036038101906104a29190612b33565b610b23565b005b6104c360048036038101906104be9190612b73565b610b39565b005b3480156104d157600080fd5b506104ec60048036038101906104e79190612c54565b610c24565b005b3480156104fa57600080fd5b5061051560048036038101906105109190612992565b610c41565b6040516105229190612944565b60405180910390f35b34801561053757600080fd5b50610552600480360381019061054d9190612cd7565b610c53565b60405161055f91906126e7565b60405180910390f35b34801561057457600080fd5b5061058f600480360381019061058a9190612ada565b610ce7565b005b600061059c82610d6d565b9050919050565b600080600c60008154809291906105b990612d46565b9190505590506105c93382610dce565b6105d38184610dec565b80915050919050565b6060600080546105eb90612dbd565b80601f016020809104026020016040519081016040528092919081815260200182805461061790612dbd565b80156106645780601f1061063957610100808354040283529160200191610664565b820191906000526020600020905b81548152906001019060200180831161064757829003601f168201915b5050505050905090565b600061067982610e48565b5061068382610ed0565b9050919050565b61069c8282610697610f0d565b610f15565b5050565b6000600880549050905090565b600073ffffffffffffffffffffffffffffffffffffffff168273ffffffffffffffffffffffffffffffffffffffff160361071f5760006040517f64a0ae920000000000000000000000000000000000000000000000000000000081526004016107169190612a00565b60405180910390fd5b6000610733838361072e610f0d565b610f27565b90508373ffffffffffffffffffffffffffffffffffffffff168173ffffffffffffffffffffffffffffffffffffffff16146107a9578382826040517f64283d7b0000000000000000000000000000000000000000000000000000000081526004016107a093929190612dee565b60405180910390fd5b50505050565b60006107ba83610917565b82106107ff5782826040517fa57d13dc0000000000000000000000000000000000000000000000000000000081526004016107f6929190612e25565b60405180910390fd5b600660008473ffffffffffffffffffffffffffffffffffffffff1673ffffffffffffffffffffffffffffffffffffffff168152602001908152602001600020600083815260200190815260200160002054905092915050565b61087383838360405180602001604052806000815250610c24565b505050565b61088b600082610886610f0d565b610f27565b5050565b60006108996106a0565b82106108df576000826040517fa57d13dc0000000000000000000000000000000000000000000000000000000081526004016108d6929190612e25565b60405180910390fd5b600882815481106108f3576108f2612e4e565b5b90600052602060002001549050919050565b600061091082610e48565b9050919050565b60008073ffffffffffffffffffffffffffffffffffffffff168273ffffffffffffffffffffffffffffffffffffffff160361098a5760006040517f89c62b640000000000000000000000000000000000000000000000000000000081526004016109819190612a00565b60405180910390fd5b600360008373ffffffffffffffffffffffffffffffffffffffff1673ffffffffffffffffffffffffffffffffffffffff168152602001908152602001600020549050919050565b6109d9610f3d565b6109e36000610fc4565b565b3373ffffffffffffffffffffffffffffffffffffffff16610a0582610905565b73ffffffffffffffffffffffffffffffffffffffff1614610a5b576040517f08c379a0000000000000000000000000000000000000000000000000000000008152600401610a5290612eef565b60405180910390fd5b610a648161108a565b50565b6000600b60009054906101000a900473ffffffffffffffffffffffffffffffffffffffff16905090565b606060018054610aa090612dbd565b80601f0160208091040260200160405190810160405280929190818152602001828054610acc90612dbd565b8015610b195780601f10610aee57610100808354040283529160200191610b19565b820191906000526020600020905b815481529060010190602001808311610afc57829003601f168201915b5050505050905090565b610b35610b2e610f0d565b8383611110565b5050565b80341015610b7c576040517f08c379a0000000000000000000000000000000000000000000000000000000008152600401610b7390612f5b565b60405180910390fd5b6000821015610bc0576040517f08c379a0000000000000000000000000000000000000000000000000000000008152600401610bb790612fc7565b60405180910390fd5b6000610bcb83610905565b90508073ffffffffffffffffffffffffffffffffffffffff166108fc349081150290604051600060405180830381858888f19350505050158015610c13573d6000803e3d6000fd5b50610c1f81338561127f565b505050565b610c2f8484846106ad565b610c3b8484848461129f565b50505050565b6060610c4c82611456565b9050919050565b6000600560008473ffffffffffffffffffffffffffffffffffffffff1673ffffffffffffffffffffffffffffffffffffffff16815260200190815260200160002060008373ffffffffffffffffffffffffffffffffffffffff1673ffffffffffffffffffffffffffffffffffffffff16815260200190815260200160002060009054906101000a900460ff16905092915050565b610cef610f3d565b600073ffffffffffffffffffffffffffffffffffffffff168173ffffffffffffffffffffffffffffffffffffffff1603610d615760006040517f1e4fbdf7000000000000000000000000000000000000000000000000000000008152600401610d589190612a00565b60405180910390fd5b610d6a81610fc4565b50565b6000634906490660e01b7bffffffffffffffffffffffffffffffffffffffffffffffffffffffff1916827bffffffffffffffffffffffffffffffffffffffffffffffffffffffff19161480610dc75750610dc682611569565b5b9050919050565b610de88282604051806020016040528060008152506115e3565b5050565b80600a60008481526020019081526020016000209081610e0c9190613193565b507ff8e1a15aba9398e019f0b49df1a4fde98ee17ae345cb5f6b5e2c27f5033e8ce782604051610e3c91906128aa565b60405180910390a15050565b600080610e54836115ff565b9050600073ffffffffffffffffffffffffffffffffffffffff168173ffffffffffffffffffffffffffffffffffffffff1603610ec757826040517f7e273289000000000000000000000000000000000000000000000000000000008152600401610ebe91906128aa565b60405180910390fd5b80915050919050565b60006004600083815260200190815260200160002060009054906101000a900473ffffffffffffffffffffffffffffffffffffffff169050919050565b600033905090565b610f22838383600161163c565b505050565b6000610f34848484611801565b90509392505050565b610f45610f0d565b73ffffffffffffffffffffffffffffffffffffffff16610f63610a67565b73ffffffffffffffffffffffffffffffffffffffff1614610fc257610f86610f0d565b6040517f118cdaa7000000000000000000000000000000000000000000000000000000008152600401610fb99190612a00565b60405180910390fd5b565b6000600b60009054906101000a900473ffffffffffffffffffffffffffffffffffffffff16905081600b60006101000a81548173ffffffffffffffffffffffffffffffffffffffff021916908373ffffffffffffffffffffffffffffffffffffffff1602179055508173ffffffffffffffffffffffffffffffffffffffff168173ffffffffffffffffffffffffffffffffffffffff167f8be0079c531659141344cd1fd0a4f28419497f9722a3daafe3b4186f6b6457e060405160405180910390a35050565b60006110996000836000610f27565b9050600073ffffffffffffffffffffffffffffffffffffffff168173ffffffffffffffffffffffffffffffffffffffff160361110c57816040517f7e27328900000000000000000000000000000000000000000000000000000000815260040161110391906128aa565b60405180910390fd5b5050565b600073ffffffffffffffffffffffffffffffffffffffff168273ffffffffffffffffffffffffffffffffffffffff160361118157816040517f5b08ba180000000000000000000000000000000000000000000000000000000081526004016111789190612a00565b60405180910390fd5b80600560008573ffffffffffffffffffffffffffffffffffffffff1673ffffffffffffffffffffffffffffffffffffffff16815260200190815260200160002060008473ffffffffffffffffffffffffffffffffffffffff1673ffffffffffffffffffffffffffffffffffffffff16815260200190815260200160002060006101000a81548160ff0219169083151502179055508173ffffffffffffffffffffffffffffffffffffffff168373ffffffffffffffffffffffffffffffffffffffff167f17307eab39ab6107e8899845ad3d59bd9653f200f220920489ca2b5937696c318360405161127291906126e7565b60405180910390a3505050565b61129a8383836040518060200160405280600081525061191e565b505050565b60008373ffffffffffffffffffffffffffffffffffffffff163b1115611450578273ffffffffffffffffffffffffffffffffffffffff1663150b7a026112e3610f0d565b8685856040518563ffffffff1660e01b815260040161130594939291906132ba565b6020604051808303816000875af192505050801561134157506040513d601f19601f8201168201806040525081019061133e919061331b565b60015b6113c5573d8060008114611371576040519150601f19603f3d011682016040523d82523d6000602084013e611376565b606091505b5060008151036113bd57836040517f64a0ae920000000000000000000000000000000000000000000000000000000081526004016113b49190612a00565b60405180910390fd5b805181602001fd5b63150b7a0260e01b7bffffffffffffffffffffffffffffffffffffffffffffffffffffffff1916817bffffffffffffffffffffffffffffffffffffffffffffffffffffffff19161461144e57836040517f64a0ae920000000000000000000000000000000000000000000000000000000081526004016114459190612a00565b60405180910390fd5b505b50505050565b606061146182610e48565b506000600a6000848152602001908152602001600020805461148290612dbd565b80601f01602080910402602001604051908101604052809291908181526020018280546114ae90612dbd565b80156114fb5780601f106114d0576101008083540402835291602001916114fb565b820191906000526020600020905b8154815290600101906020018083116114de57829003601f168201915b50505050509050600061150c61193b565b90506000815103611521578192505050611564565b60008251111561155657808260405160200161153e929190613384565b60405160208183030381529060405292505050611564565b61155f84611952565b925050505b919050565b60007f780e9d63000000000000000000000000000000000000000000000000000000007bffffffffffffffffffffffffffffffffffffffffffffffffffffffff1916827bffffffffffffffffffffffffffffffffffffffffffffffffffffffff191614806115dc57506115db826119bb565b5b9050919050565b6115ed8383611a9d565b6115fa600084848461129f565b505050565b60006002600083815260200190815260200160002060009054906101000a900473ffffffffffffffffffffffffffffffffffffffff169050919050565b80806116755750600073ffffffffffffffffffffffffffffffffffffffff168273ffffffffffffffffffffffffffffffffffffffff1614155b156117a957600061168584610e48565b9050600073ffffffffffffffffffffffffffffffffffffffff168373ffffffffffffffffffffffffffffffffffffffff16141580156116f057508273ffffffffffffffffffffffffffffffffffffffff168173ffffffffffffffffffffffffffffffffffffffff1614155b801561170357506117018184610c53565b155b1561174557826040517fa9fbf51f00000000000000000000000000000000000000000000000000000000815260040161173c9190612a00565b60405180910390fd5b81156117a757838573ffffffffffffffffffffffffffffffffffffffff168273ffffffffffffffffffffffffffffffffffffffff167f8c5be1e5ebec7d5bd14f71427d1e84f3dd0314c0f7b2291e5b200ac8c7c3b92560405160405180910390a45b505b836004600085815260200190815260200160002060006101000a81548173ffffffffffffffffffffffffffffffffffffffff021916908373ffffffffffffffffffffffffffffffffffffffff16021790555050505050565b60008061180f858585611b96565b9050600073ffffffffffffffffffffffffffffffffffffffff168173ffffffffffffffffffffffffffffffffffffffff16036118535761184e84611db0565b611892565b8473ffffffffffffffffffffffffffffffffffffffff168173ffffffffffffffffffffffffffffffffffffffff1614611891576118908185611df9565b5b5b600073ffffffffffffffffffffffffffffffffffffffff168573ffffffffffffffffffffffffffffffffffffffff16036118d4576118cf84611f5a565b611913565b8473ffffffffffffffffffffffffffffffffffffffff168173ffffffffffffffffffffffffffffffffffffffff161461191257611911858561202b565b5b5b809150509392505050565b6119298484846120b6565b6119358484848461129f565b50505050565b606060405180602001604052806000815250905090565b606061195d82610e48565b50600061196861193b565b9050600081511161198857604051806020016040528060008152506119b3565b8061199284612223565b6040516020016119a3929190613384565b6040516020818303038152906040525b915050919050565b60007f80ac58cd000000000000000000000000000000000000000000000000000000007bffffffffffffffffffffffffffffffffffffffffffffffffffffffff1916827bffffffffffffffffffffffffffffffffffffffffffffffffffffffff19161480611a8657507f5b5e139f000000000000000000000000000000000000000000000000000000007bffffffffffffffffffffffffffffffffffffffffffffffffffffffff1916827bffffffffffffffffffffffffffffffffffffffffffffffffffffffff1916145b80611a965750611a95826122f1565b5b9050919050565b600073ffffffffffffffffffffffffffffffffffffffff168273ffffffffffffffffffffffffffffffffffffffff1603611b0f5760006040517f64a0ae92000000000000000000000000000000000000000000000000000000008152600401611b069190612a00565b60405180910390fd5b6000611b1d83836000610f27565b9050600073ffffffffffffffffffffffffffffffffffffffff168173ffffffffffffffffffffffffffffffffffffffff1614611b915760006040517f73c6ac6e000000000000000000000000000000000000000000000000000000008152600401611b889190612a00565b60405180910390fd5b505050565b600080611ba2846115ff565b9050600073ffffffffffffffffffffffffffffffffffffffff168373ffffffffffffffffffffffffffffffffffffffff1614611be457611be381848661235b565b5b600073ffffffffffffffffffffffffffffffffffffffff168173ffffffffffffffffffffffffffffffffffffffff1614611c7557611c2660008560008061163c565b6001600360008373ffffffffffffffffffffffffffffffffffffffff1673ffffffffffffffffffffffffffffffffffffffff168152602001908152602001600020600082825403925050819055505b600073ffffffffffffffffffffffffffffffffffffffff168573ffffffffffffffffffffffffffffffffffffffff1614611cf8576001600360008773ffffffffffffffffffffffffffffffffffffffff1673ffffffffffffffffffffffffffffffffffffffff168152602001908152602001600020600082825401925050819055505b846002600086815260200190815260200160002060006101000a81548173ffffffffffffffffffffffffffffffffffffffff021916908373ffffffffffffffffffffffffffffffffffffffff160217905550838573ffffffffffffffffffffffffffffffffffffffff168273ffffffffffffffffffffffffffffffffffffffff167fddf252ad1be2c89b69c2b068fc378daa952ba7f163c4a11628f55a4df523b3ef60405160405180910390a4809150509392505050565b6008805490506009600083815260200190815260200160002081905550600881908060018154018082558091505060019003906000526020600020016000909190919091505550565b6000611e0483610917565b9050600060076000848152602001908152602001600020549050818114611ee9576000600660008673ffffffffffffffffffffffffffffffffffffffff1673ffffffffffffffffffffffffffffffffffffffff168152602001908152602001600020600084815260200190815260200160002054905080600660008773ffffffffffffffffffffffffffffffffffffffff1673ffffffffffffffffffffffffffffffffffffffff168152602001908152602001600020600084815260200190815260200160002081905550816007600083815260200190815260200160002081905550505b6007600084815260200190815260200160002060009055600660008573ffffffffffffffffffffffffffffffffffffffff1673ffffffffffffffffffffffffffffffffffffffff16815260200190815260200160002060008381526020019081526020016000206000905550505050565b60006001600880549050611f6e91906133a8565b9050600060096000848152602001908152602001600020549050600060088381548110611f9e57611f9d612e4e565b5b906000526020600020015490508060088381548110611fc057611fbf612e4e565b5b90600052602060002001819055508160096000838152602001908152602001600020819055506009600085815260200190815260200160002060009055600880548061200f5761200e6133dc565b5b6001900381819060005260206000200160009055905550505050565b6000600161203884610917565b61204291906133a8565b905081600660008573ffffffffffffffffffffffffffffffffffffffff1673ffffffffffffffffffffffffffffffffffffffff168152602001908152602001600020600083815260200190815260200160002081905550806007600084815260200190815260200160002081905550505050565b600073ffffffffffffffffffffffffffffffffffffffff168273ffffffffffffffffffffffffffffffffffffffff16036121285760006040517f64a0ae9200000000000000000000000000000000000000000000000000000000815260040161211f9190612a00565b60405180910390fd5b600061213683836000610f27565b9050600073ffffffffffffffffffffffffffffffffffffffff168173ffffffffffffffffffffffffffffffffffffffff16036121a957816040517f7e2732890000000000000000000000000000000000000000000000000000000081526004016121a091906128aa565b60405180910390fd5b8373ffffffffffffffffffffffffffffffffffffffff168173ffffffffffffffffffffffffffffffffffffffff161461221d578382826040517f64283d7b00000000000000000000000000000000000000000000000000000000815260040161221493929190612dee565b60405180910390fd5b50505050565b6060600060016122328461241f565b01905060008167ffffffffffffffff8111156122515761225061271d565b5b6040519080825280601f01601f1916602001820160405280156122835781602001600182028036833780820191505090505b509050600082602001820190505b6001156122e6578080600190039150507f3031323334353637383961626364656600000000000000000000000000000000600a86061a8153600a85816122da576122d961340b565b5b04945060008503612291575b819350505050919050565b60007f01ffc9a7000000000000000000000000000000000000000000000000000000007bffffffffffffffffffffffffffffffffffffffffffffffffffffffff1916827bffffffffffffffffffffffffffffffffffffffffffffffffffffffff1916149050919050565b612366838383612572565b61241a57600073ffffffffffffffffffffffffffffffffffffffff168373ffffffffffffffffffffffffffffffffffffffff16036123db57806040517f7e2732890000000000000000000000000000000000000000000000000000000081526004016123d291906128aa565b60405180910390fd5b81816040517f177e802f000000000000000000000000000000000000000000000000000000008152600401612411929190612e25565b60405180910390fd5b505050565b600080600090507a184f03e93ff9f4daa797ed6e38ed64bf6a1f010000000000000000831061247d577a184f03e93ff9f4daa797ed6e38ed64bf6a1f01000000000000000083816124735761247261340b565b5b0492506040810190505b6d04ee2d6d415b85acef810000000083106124ba576d04ee2d6d415b85acef810000000083816124b0576124af61340b565b5b0492506020810190505b662386f26fc1000083106124e957662386f26fc1000083816124df576124de61340b565b5b0492506010810190505b6305f5e1008310612512576305f5e10083816125085761250761340b565b5b0492506008810190505b612710831061253757612710838161252d5761252c61340b565b5b0492506004810190505b6064831061255a57606483816125505761254f61340b565b5b0492506002810190505b600a8310612569576001810190505b80915050919050565b60008073ffffffffffffffffffffffffffffffffffffffff168373ffffffffffffffffffffffffffffffffffffffff161415801561262a57508273ffffffffffffffffffffffffffffffffffffffff168473ffffffffffffffffffffffffffffffffffffffff1614806125eb57506125ea8484610c53565b5b8061262957508273ffffffffffffffffffffffffffffffffffffffff1661261183610ed0565b73ffffffffffffffffffffffffffffffffffffffff16145b5b90509392505050565b6000604051905090565b600080fd5b600080fd5b60007fffffffff0000000000000000000000000000000000000000000000000000000082169050919050565b61267c81612647565b811461268757600080fd5b50565b60008135905061269981612673565b92915050565b6000602082840312156126b5576126b461263d565b5b60006126c38482850161268a565b91505092915050565b60008115159050919050565b6126e1816126cc565b82525050565b60006020820190506126fc60008301846126d8565b92915050565b600080fd5b600080fd5b6000601f19601f8301169050919050565b7f4e487b7100000000000000000000000000000000000000000000000000000000600052604160045260246000fd5b6127558261270c565b810181811067ffffffffffffffff821117156127745761277361271d565b5b80604052505050565b6000612787612633565b9050612793828261274c565b919050565b600067ffffffffffffffff8211156127b3576127b261271d565b5b6127bc8261270c565b9050602081019050919050565b82818337600083830152505050565b60006127eb6127e684612798565b61277d565b90508281526020810184848401111561280757612806612707565b5b6128128482856127c9565b509392505050565b600082601f83011261282f5761282e612702565b5b813561283f8482602086016127d8565b91505092915050565b60006020828403121561285e5761285d61263d565b5b600082013567ffffffffffffffff81111561287c5761287b612642565b5b6128888482850161281a565b91505092915050565b6000819050919050565b6128a481612891565b82525050565b60006020820190506128bf600083018461289b565b92915050565b600081519050919050565b600082825260208201905092915050565b60005b838110156128ff5780820151818401526020810190506128e4565b60008484015250505050565b6000612916826128c5565b61292081856128d0565b93506129308185602086016128e1565b6129398161270c565b840191505092915050565b6000602082019050818103600083015261295e818461290b565b905092915050565b61296f81612891565b811461297a57600080fd5b50565b60008135905061298c81612966565b92915050565b6000602082840312156129a8576129a761263d565b5b60006129b68482850161297d565b91505092915050565b600073ffffffffffffffffffffffffffffffffffffffff82169050919050565b60006129ea826129bf565b9050919050565b6129fa816129df565b82525050565b6000602082019050612a1560008301846129f1565b92915050565b612a24816129df565b8114612a2f57600080fd5b50565b600081359050612a4181612a1b565b92915050565b60008060408385031215612a5e57612a5d61263d565b5b6000612a6c85828601612a32565b9250506020612a7d8582860161297d565b9150509250929050565b600080600060608486031215612aa057612a9f61263d565b5b6000612aae86828701612a32565b9350506020612abf86828701612a32565b9250506040612ad08682870161297d565b9150509250925092565b600060208284031215612af057612aef61263d565b5b6000612afe84828501612a32565b91505092915050565b612b10816126cc565b8114612b1b57600080fd5b50565b600081359050612b2d81612b07565b92915050565b60008060408385031215612b4a57612b4961263d565b5b6000612b5885828601612a32565b9250506020612b6985828601612b1e565b9150509250929050565b60008060408385031215612b8a57612b8961263d565b5b6000612b988582860161297d565b9250506020612ba98582860161297d565b9150509250929050565b600067ffffffffffffffff821115612bce57612bcd61271d565b5b612bd78261270c565b9050602081019050919050565b6000612bf7612bf284612bb3565b61277d565b905082815260208101848484011115612c1357612c12612707565b5b612c1e8482856127c9565b509392505050565b600082601f830112612c3b57612c3a612702565b5b8135612c4b848260208601612be4565b91505092915050565b60008060008060808587031215612c6e57612c6d61263d565b5b6000612c7c87828801612a32565b9450506020612c8d87828801612a32565b9350506040612c9e8782880161297d565b925050606085013567ffffffffffffffff811115612cbf57612cbe612642565b5b612ccb87828801612c26565b91505092959194509250565b60008060408385031215612cee57612ced61263d565b5b6000612cfc85828601612a32565b9250506020612d0d85828601612a32565b9150509250929050565b7f4e487b7100000000000000000000000000000000000000000000000000000000600052601160045260246000fd5b6000612d5182612891565b91507fffffffffffffffffffffffffffffffffffffffffffffffffffffffffffffffff8203612d8357612d82612d17565b5b600182019050919050565b7f4e487b7100000000000000000000000000000000000000000000000000000000600052602260045260246000fd5b60006002820490506001821680612dd557607f821691505b602082108103612de857612de7612d8e565b5b50919050565b6000606082019050612e0360008301866129f1565b612e10602083018561289b565b612e1d60408301846129f1565b949350505050565b6000604082019050612e3a60008301856129f1565b612e47602083018461289b565b9392505050565b7f4e487b7100000000000000000000000000000000000000000000000000000000600052603260045260246000fd5b7f596f7520617265206e6f7420746865206f776e6572206f66207468697320707260008201527f6f70657274790000000000000000000000000000000000000000000000000000602082015250565b6000612ed96026836128d0565b9150612ee482612e7d565b604082019050919050565b60006020820190508181036000830152612f0881612ecc565b9050919050565b7f496e73756666696369656e742066756e64730000000000000000000000000000600082015250565b6000612f456012836128d0565b9150612f5082612f0f565b602082019050919050565b60006020820190508181036000830152612f7481612f38565b9050919050565b7f496e76616c696420746f6b656e49640000000000000000000000000000000000600082015250565b6000612fb1600f836128d0565b9150612fbc82612f7b565b602082019050919050565b60006020820190508181036000830152612fe081612fa4565b9050919050565b60008190508160005260206000209050919050565b60006020601f8301049050919050565b600082821b905092915050565b6000600883026130497fffffffffffffffffffffffffffffffffffffffffffffffffffffffffffffffff8261300c565b613053868361300c565b95508019841693508086168417925050509392505050565b6000819050919050565b600061309061308b61308684612891565b61306b565b612891565b9050919050565b6000819050919050565b6130aa83613075565b6130be6130b682613097565b848454613019565b825550505050565b600090565b6130d36130c6565b6130de8184846130a1565b505050565b5b81811015613102576130f76000826130cb565b6001810190506130e4565b5050565b601f8211156131475761311881612fe7565b61312184612ffc565b81016020851015613130578190505b61314461313c85612ffc565b8301826130e3565b50505b505050565b600082821c905092915050565b600061316a6000198460080261314c565b1980831691505092915050565b60006131838383613159565b9150826002028217905092915050565b61319c826128c5565b67ffffffffffffffff8111156131b5576131b461271d565b5b6131bf8254612dbd565b6131ca828285613106565b600060209050601f8311600181146131fd57600084156131eb578287015190505b6131f58582613177565b86555061325d565b601f19841661320b86612fe7565b60005b828110156132335784890151825560018201915060208501945060208101905061320e565b86831015613250578489015161324c601f891682613159565b8355505b6001600288020188555050505b505050505050565b600081519050919050565b600082825260208201905092915050565b600061328c82613265565b6132968185613270565b93506132a68185602086016128e1565b6132af8161270c565b840191505092915050565b60006080820190506132cf60008301876129f1565b6132dc60208301866129f1565b6132e9604083018561289b565b81810360608301526132fb8184613281565b905095945050505050565b60008151905061331581612673565b92915050565b6000602082840312156133315761333061263d565b5b600061333f84828501613306565b91505092915050565b600081905092915050565b600061335e826128c5565b6133688185613348565b93506133788185602086016128e1565b80840191505092915050565b60006133908285613353565b915061339c8284613353565b91508190509392505050565b60006133b382612891565b91506133be83612891565b92508282039050818111156133d6576133d5612d17565b5b92915050565b7f4e487b7100000000000000000000000000000000000000000000000000000000600052603160045260246000fd5b7f4e487b7100000000000000000000000000000000000000000000000000000000600052601260045260246000fdfea26469706673582212204e7a11f1d4eb21677a19570ebccb7adcca808a552abba3df1822e7252e86971e64736f6c63430008180033",
  "linkReferences": {},
  "deployedLinkReferences": {}
}